{
  "contractName": "AssetTracker",
  "abi": [
    {
      "anonymous": false,
      "inputs": [
        {
          "indexed": false,
          "internalType": "address",
          "name": "account",
          "type": "address"
        },
        {
          "indexed": false,
          "internalType": "string",
          "name": "uuid",
          "type": "string"
        },
        {
          "indexed": false,
          "internalType": "string",
          "name": "manufacturer",
          "type": "string"
        }
      ],
      "name": "AssetCreate",
      "type": "event"
    },
    {
      "anonymous": false,
      "inputs": [
        {
          "indexed": false,
          "internalType": "address",
          "name": "from",
          "type": "address"
        },
        {
          "indexed": false,
          "internalType": "string",
          "name": "uuid",
          "type": "string"
        }
      ],
      "name": "AssetTranfer",
      "type": "event"
    },
    {
      "anonymous": false,
      "inputs": [
        {
          "indexed": false,
          "internalType": "address",
          "name": "account",
          "type": "address"
        },
        {
          "indexed": false,
          "internalType": "string",
          "name": "uuid",
          "type": "string"
        },
        {
          "indexed": false,
          "internalType": "string",
          "name": "message",
          "type": "string"
        }
      ],
      "name": "RejectCreate",
      "type": "event"
    },
    {
      "anonymous": false,
      "inputs": [
        {
          "indexed": false,
          "internalType": "address",
          "name": "from",
          "type": "address"
        },
        {
          "indexed": false,
          "internalType": "string",
          "name": "uuid",
          "type": "string"
        },
        {
          "indexed": false,
          "internalType": "string",
          "name": "message",
          "type": "string"
        }
      ],
      "name": "RejectTranfer",
      "type": "event"
    },
    {
      "inputs": [
        {
          "internalType": "string",
          "name": "serial",
          "type": "string"
        }
      ],
      "name": "setId",
      "outputs": [],
      "stateMutability": "nonpayable",
      "type": "function"
    },
    {
      "inputs": [],
      "name": "getId",
      "outputs": [
        {
          "internalType": "string",
          "name": "",
          "type": "string"
        }
      ],
      "stateMutability": "view",
      "type": "function",
      "constant": true
    },
    {
      "inputs": [
        {
          "internalType": "string",
          "name": "name",
          "type": "string"
        },
        {
          "internalType": "string",
          "name": "description",
          "type": "string"
        },
        {
          "internalType": "string",
          "name": "manufacturer",
          "type": "string"
        }
      ],
      "name": "createAsset",
      "outputs": [],
      "stateMutability": "nonpayable",
      "type": "function"
    }
  ],
  "bytecode": "0x608060405234801561001057600080fd5b50610a2f806100206000396000f3fe608060405234801561001057600080fd5b50600436106100415760003560e01c80635d1ca6311461004657806387e4396c14610064578063de58d15614610080575b600080fd5b61004e61009c565b60405161005b919061088c565b60405180910390f35b61007e6004803603810190610079919061056b565b61012e565b005b61009a600480360381019061009591906105b0565b610144565b005b6060600080546100ab9061095e565b80601f01602080910402602001604051908101604052809291908181526020018280546100d79061095e565b80156101245780601f106100f957610100808354040283529160200191610124565b820191906000526020600020905b81548152906001019060200180831161010757829003601f168201915b5050505050905090565b81816000919061013f9291906103f8565b505050565b6001600060405161015591906107eb565b908152602001604051809103902060020160009054906101000a900460ff16156101b4577f8c162857a2babb214aa3eec53736fe29210ad6ec70bd43589c0d59c1c456308a3360006040516101ab929190610849565b60405180910390a15b604051806080016040528087878080601f016020809104026020016040519081016040528093929190818152602001838380828437600081840152601f19601f82011690508083019250505050505050815260200185858080601f016020809104026020016040519081016040528093929190818152602001838380828437600081840152601f19601f82011690508083019250505050505050815260200160011515815260200183838080601f016020809104026020016040519081016040528093929190818152602001838380828437600081840152601f19601f82011690508083019250505050505050815250600160006040516102b591906107eb565b908152602001604051809103902060008201518160000190805190602001906102df92919061047e565b5060208201518160010190805190602001906102fc92919061047e565b5060408201518160020160006101000a81548160ff021916908315150217905550606082015181600301908051906020019061033992919061047e565b509050506001600260003373ffffffffffffffffffffffffffffffffffffffff1673ffffffffffffffffffffffffffffffffffffffff168152602001908152602001600020600060405161038d91906107eb565b908152602001604051809103902060006101000a81548160ff0219169083151502179055507f94ed006719ac23b3ba97bc86ddc95b3bac36e3c5239ef00fad4f68e3b32418d333600084846040516103e89493929190610802565b60405180910390a1505050505050565b8280546104049061095e565b90600052602060002090601f016020900481019282610426576000855561046d565b82601f1061043f57803560ff191683800117855561046d565b8280016001018555821561046d579182015b8281111561046c578235825591602001919060010190610451565b5b50905061047a9190610504565b5090565b82805461048a9061095e565b90600052602060002090601f0160209004810192826104ac57600085556104f3565b82601f106104c557805160ff19168380011785556104f3565b828001600101855582156104f3579182015b828111156104f25782518255916020019190600101906104d7565b5b5090506105009190610504565b5090565b5b8082111561051d576000816000905550600101610505565b5090565b60008083601f84011261053357600080fd5b8235905067ffffffffffffffff81111561054c57600080fd5b60208301915083600182028301111561056457600080fd5b9250929050565b6000806020838503121561057e57600080fd5b600083013567ffffffffffffffff81111561059857600080fd5b6105a485828601610521565b92509250509250929050565b600080600080600080606087890312156105c957600080fd5b600087013567ffffffffffffffff8111156105e357600080fd5b6105ef89828a01610521565b9650965050602087013567ffffffffffffffff81111561060e57600080fd5b61061a89828a01610521565b9450945050604087013567ffffffffffffffff81111561063957600080fd5b61064589828a01610521565b92509250509295509295509295565b61065d816108ea565b82525050565b600061066f83856108ce565b935061067c83858461091c565b610685836109bf565b840190509392505050565b600061069b826108c3565b6106a581856108ce565b93506106b581856020860161092b565b6106be816109bf565b840191505092915050565b600081546106d68161095e565b6106e081866108ce565b945060018216600081146106fb576001811461070d57610740565b60ff1983168652602086019350610740565b610716856108ae565b60005b8381101561073857815481890152600182019150602081019050610719565b808801955050505b50505092915050565b600081546107568161095e565b61076081866108df565b9450600182166000811461077b576001811461078c576107bf565b60ff198316865281860193506107bf565b610795856108ae565b60005b838110156107b757815481890152600182019150602081019050610798565b838801955050505b50505092915050565b60006107d56014836108ce565b91506107e0826109d0565b602082019050919050565b60006107f78284610749565b915081905092915050565b60006060820190506108176000830187610654565b818103602083015261082981866106c9565b9050818103604083015261083e818486610663565b905095945050505050565b600060608201905061085e6000830185610654565b818103602083015261087081846106c9565b90508181036040830152610883816107c8565b90509392505050565b600060208201905081810360008301526108a68184610690565b905092915050565b60008190508160005260206000209050919050565b600081519050919050565b600082825260208201905092915050565b600081905092915050565b60006108f5826108fc565b9050919050565b600073ffffffffffffffffffffffffffffffffffffffff82169050919050565b82818337600083830152505050565b60005b8381101561094957808201518184015260208101905061092e565b83811115610958576000848401525b50505050565b6000600282049050600182168061097657607f821691505b6020821081141561098a57610989610990565b5b50919050565b7f4e487b7100000000000000000000000000000000000000000000000000000000600052602260045260246000fd5b6000601f19601f8301169050919050565b7f417373657420616c72656164792065786973747300000000000000000000000060008201525056fea264697066735822122023c2e2759d88861a51a78fe89461fffb12739d56f9448780c83454c582dd345864736f6c63430008040033",
  "immutableReferences": {},
  "source": "pragma solidity 0.8.4;\r\n\r\ncontract AssetTracker {\r\n  string uuid;\r\n\r\n  struct Asset {\r\n\r\n    string name;\r\n    string description;\r\n    bool init;\r\n    string manufacturer;\r\n\r\n  }\r\n\r\n  function setId(string calldata serial) public {\r\n    uuid = serial;\r\n  }\r\n\r\n  function getId() public view returns(string memory){\r\n    return uuid;\r\n  }\r\n\r\n  mapping(string => Asset) private assetStore;\r\n  mapping(address => mapping(string => bool)) private walletStore;\r\n\r\n  event AssetCreate(address account, string uuid, string manufacturer);\r\n  event RejectCreate(address account, string uuid, string message);\r\n  event AssetTranfer(address from, string uuid);\r\n  event RejectTranfer(address from, string uuid, string message);\r\n\r\n  function createAsset(string calldata name, string calldata description, string calldata manufacturer) public {\r\n    if(assetStore[uuid].init) {\r\n      emit RejectCreate(msg.sender, uuid, \"Asset already exists\");\r\n    }\r\n\r\n    assetStore[uuid] = Asset(name, description, true, manufacturer);\r\n    walletStore[msg.sender][uuid] = true;\r\n    emit AssetCreate(msg.sender, uuid, manufacturer);\r\n\r\n  }\r\n}",
  "sourcePath": "C:/Users/lewis/Documents/Projects/Smart Contracts/_blockchain/contracts/AssetTracker.sol",
  "compiler": {
    "name": "solc",
    "version": "0.8.4+commit.c7e474f2.Emscripten.clang"
  },
  "schemaVersion": "3.4.1",
  "updatedAt": "2021-05-23T10:18:26.664Z",
  "networkType": "ethereum",
  "devdoc": {
    "kind": "dev",
    "methods": {},
    "version": 1
  },
  "userdoc": {
    "kind": "user",
    "methods": {},
    "version": 1
  }
}